{
  "contractName": "Bench",
  "abi": [
    {
      "inputs": [
        {
          "internalType": "uint32",
          "name": "loop_limit",
          "type": "uint32"
        }
      ],
      "name": "cpu_ram_soak_test",
      "outputs": [],
      "stateMutability": "pure",
      "type": "function",
      "constant": true
    }
  ],
  "bytecode": "0x608060405234801561001057600080fd5b506103d5806100206000396000f3fe608060405234801561001057600080fd5b506004361061002b5760003560e01c8063558badd714610030575b600080fd5b61004a600480360381019061004591906101e2565b61004c565b005b61005461017b565b600062019000905060005b8363ffffffff168163ffffffff16101561017557600082600284610083919061026d565b600784610090919061029e565b61009a91906102db565b6100a49190610313565b90506000836003846100b6919061029e565b6100c09190610313565b90506000858263ffffffff166201900081106100df576100de610344565b5b60200201519050858363ffffffff1662019000811061010157610100610344565b5b6020020151868363ffffffff1662019000811061012157610120610344565b5b602002019060ff16908160ff168152505080868463ffffffff1662019000811061014e5761014d610344565b5b602002019060ff16908160ff1681525050505050808061016d90610373565b91505061005f565b50505050565b604051806232000001604052806201900090602082028036833780820191505090505090565b600080fd5b600063ffffffff82169050919050565b6101bf816101a6565b81146101ca57600080fd5b50565b6000813590506101dc816101b6565b92915050565b6000602082840312156101f8576101f76101a1565b5b6000610206848285016101cd565b91505092915050565b7f4e487b7100000000000000000000000000000000000000000000000000000000600052601260045260246000fd5b7f4e487b7100000000000000000000000000000000000000000000000000000000600052601160045260246000fd5b6000610278826101a6565b9150610283836101a6565b9250826102935761029261020f565b5b828204905092915050565b60006102a9826101a6565b91506102b4836101a6565b92508282026102c2816101a6565b91508082146102d4576102d361023e565b5b5092915050565b60006102e6826101a6565b91506102f1836101a6565b9250828201905063ffffffff81111561030d5761030c61023e565b5b92915050565b600061031e826101a6565b9150610329836101a6565b9250826103395761033861020f565b5b828206905092915050565b7f4e487b7100000000000000000000000000000000000000000000000000000000600052603260045260246000fd5b600061037e826101a6565b915063ffffffff82036103945761039361023e565b5b60018201905091905056fea2646970667358221220890c35335e6f7e5fad559813da066d0c34acdc5f8d3b8111be5e06f80706897f64736f6c63430008120033",
  "immutableReferences": {},
  "source": "// SPDX-License-Identifier: Unlicense\npragma solidity ^0.8.16;\n\ncontract Bench {\n    function cpu_ram_soak_test(uint32 loop_limit) public pure {\n        uint8[102400] memory buf;\n        uint32 len = 102400;\n        for (uint32 i=0; i < loop_limit; i++) {\n            uint32 j = (i * 7 + len / 2) % len;\n            uint32 k = (i * 3) % len;\n            uint8 tmp = buf[k];\n            buf[k] = buf[j];\n            buf[j] = tmp;\n        }\n    }\n}\n",
  "sourcePath": "/home/viktar/evm2near/etherium/contracts/bench.sol",
  "compiler": {
    "name": "solc",
    "version": "0.8.18+commit.87f61d96.Emscripten.clang"
  },
  "schemaVersion": "3.4.12",
  "updatedAt": "2023-02-20T12:19:31.603Z",
  "networkType": "ethereum",
  "devdoc": {
    "kind": "dev",
    "methods": {},
    "version": 1
  },
  "userdoc": {
    "kind": "user",
    "methods": {},
    "version": 1
  }
}