{
  "contractName": "Collatz",
  "abi": [
    {
      "inputs": [
        {
          "internalType": "uint256",
          "name": "n",
          "type": "uint256"
        }
      ],
      "name": "totalStoppingTime",
      "outputs": [
        {
          "internalType": "uint256",
          "name": "",
          "type": "uint256"
        }
      ],
      "stateMutability": "pure",
      "type": "function",
      "constant": true
    },
    {
      "inputs": [
        {
          "internalType": "uint256",
          "name": "n",
          "type": "uint256"
        }
      ],
      "name": "recursiveTotalStoppingTime",
      "outputs": [
        {
          "internalType": "uint256",
          "name": "",
          "type": "uint256"
        }
      ],
      "stateMutability": "pure",
      "type": "function",
      "constant": true
    }
  ],
  "bytecode": "0x608060405234801561001057600080fd5b5061036f806100206000396000f3fe608060405234801561001057600080fd5b50600436106100365760003560e01c806316b07d5c1461003b5780634de5e1bb1461006b575b600080fd5b610055600480360381019061005091906101ac565b61009b565b60405161006291906101e8565b60405180910390f35b610085600480360381019061008091906101ac565b6100d4565b60405161009291906101e8565b60405180910390f35b600080600090505b60018311156100cb576100b5836100e8565b92506001816100c49190610232565b90506100a3565b80915050919050565b60006100e1826000610138565b9050919050565b60008060006002846100fa9190610295565b036101135760028361010c91906102c6565b905061012f565b600183600361012291906102f7565b61012c9190610232565b90505b80915050919050565b60006001831161014a5781905061016b565b610168610156846100e8565b6001846101639190610232565b610138565b90505b92915050565b600080fd5b6000819050919050565b61018981610176565b811461019457600080fd5b50565b6000813590506101a681610180565b92915050565b6000602082840312156101c2576101c1610171565b5b60006101d084828501610197565b91505092915050565b6101e281610176565b82525050565b60006020820190506101fd60008301846101d9565b92915050565b7f4e487b7100000000000000000000000000000000000000000000000000000000600052601160045260246000fd5b600061023d82610176565b915061024883610176565b92508282019050808211156102605761025f610203565b5b92915050565b7f4e487b7100000000000000000000000000000000000000000000000000000000600052601260045260246000fd5b60006102a082610176565b91506102ab83610176565b9250826102bb576102ba610266565b5b828206905092915050565b60006102d182610176565b91506102dc83610176565b9250826102ec576102eb610266565b5b828204905092915050565b600061030282610176565b915061030d83610176565b925082820261031b81610176565b9150828204841483151761033257610331610203565b5b509291505056fea264697066735822122070dc3fe44564f59807246a1a4abb12191884dd115fa3d94e97738d6d026a85fa64736f6c63430008120033",
  "immutableReferences": {},
  "source": "// SPDX-License-Identifier: UNLICENSED\npragma solidity ^0.8.17;\n\n// A contract implementing the function from the famous Collatz conjecture.\n// See https://en.wikipedia.org/wiki/Collatz_conjecture\ncontract Collatz {\n    // The number of iterations to reach 1. Could never return if the conjecture is false.\n    // See https://oeis.org/A006577 for the first few values\n    function totalStoppingTime(uint256 n) public pure returns (uint256) {\n        uint256 count = 0;\n        while (n > 1) {\n            n = f(n);\n            count += 1;\n        }\n        return count;\n    }\n\n    // An alternate implementation of totalStoppingTime where we use a recursive function.\n    function recursiveTotalStoppingTime(uint256 n) public pure returns (uint256) {\n        return recursionHelper(n, 0);\n    }\n\n    // The function used in the Collatz conjecture dynamical system.\n    function f(uint256 n) private pure returns (uint256) {\n        uint256 m;\n        if (n % 2 == 0) {\n            m = n / 2;\n        } else {\n            m = 3 * n + 1;\n        }\n        return m;\n    }\n\n    // A helper function so that the recursion is in the tail-call position.\n    function recursionHelper(uint256 n, uint256 acc) private pure returns (uint256) {\n        if (n <= 1) {\n            return acc;\n        }\n\n        return recursionHelper(f(n), acc + 1);\n    }\n}\n",
  "sourcePath": "/home/viktar/evm2near/etherium/contracts/Collatz.sol",
  "compiler": {
    "name": "solc",
    "version": "0.8.18+commit.87f61d96.Emscripten.clang"
  },
  "schemaVersion": "3.4.12",
  "updatedAt": "2023-02-20T12:19:31.606Z",
  "networkType": "ethereum",
  "devdoc": {
    "kind": "dev",
    "methods": {},
    "version": 1
  },
  "userdoc": {
    "kind": "user",
    "methods": {},
    "version": 1
  }
}